{
  "contracts/LearnContract.sol": {
    "LearnContract": {
      "abi": [
        {
          "inputs": [
            {
              "internalType": "string",
              "name": "str1",
              "type": "string"
            },
            {
              "internalType": "string",
              "name": "str2",
              "type": "string"
            }
          ],
          "name": "concatenate",
          "outputs": [
            {
              "internalType": "string",
              "name": "",
              "type": "string"
            }
          ],
          "stateMutability": "pure",
          "type": "function"
        }
      ],
      "evm": {
        "bytecode": {
          "linkReferences": {},
          "object": "6080604052348015600f57600080fd5b506103958061001f6000396000f3fe608060405234801561001057600080fd5b506004361061002b5760003560e01c8063266001d314610030575b600080fd5b61004a600480360381019061004591906101e6565b610060565b60405161005791906102dd565b60405180910390f35b6060828260405160200161007592919061033b565b604051602081830303815290604052905092915050565b6000604051905090565b600080fd5b600080fd5b600080fd5b600080fd5b6000601f19601f8301169050919050565b7f4e487b7100000000000000000000000000000000000000000000000000000000600052604160045260246000fd5b6100f3826100aa565b810181811067ffffffffffffffff82111715610112576101116100bb565b5b80604052505050565b600061012561008c565b905061013182826100ea565b919050565b600067ffffffffffffffff821115610151576101506100bb565b5b61015a826100aa565b9050602081019050919050565b82818337600083830152505050565b600061018961018484610136565b61011b565b9050828152602081018484840111156101a5576101a46100a5565b5b6101b0848285610167565b509392505050565b600082601f8301126101cd576101cc6100a0565b5b81356101dd848260208601610176565b91505092915050565b600080604083850312156101fd576101fc610096565b5b600083013567ffffffffffffffff81111561021b5761021a61009b565b5b610227858286016101b8565b925050602083013567ffffffffffffffff8111156102485761024761009b565b5b610254858286016101b8565b9150509250929050565b600081519050919050565b600082825260208201905092915050565b60005b8381101561029857808201518184015260208101905061027d565b60008484015250505050565b60006102af8261025e565b6102b98185610269565b93506102c981856020860161027a565b6102d2816100aa565b840191505092915050565b600060208201905081810360008301526102f781846102a4565b905092915050565b600081905092915050565b60006103158261025e565b61031f81856102ff565b935061032f81856020860161027a565b80840191505092915050565b6000610347828561030a565b9150610353828461030a565b9150819050939250505056fea2646970667358221220a8b77b18b65efd9335e0e5fc85349ae5d8bebefee10c6f8332ed04b282fd451564736f6c634300081c0033",
          "opcodes": "PUSH1 0x80 PUSH1 0x40 MSTORE CALLVALUE DUP1 ISZERO PUSH1 0xF JUMPI PUSH1 0x0 DUP1 REVERT JUMPDEST POP PUSH2 0x395 DUP1 PUSH2 0x1F PUSH1 0x0 CODECOPY PUSH1 0x0 RETURN INVALID PUSH1 0x80 PUSH1 0x40 MSTORE CALLVALUE DUP1 ISZERO PUSH2 0x10 JUMPI PUSH1 0x0 DUP1 REVERT JUMPDEST POP PUSH1 0x4 CALLDATASIZE LT PUSH2 0x2B JUMPI PUSH1 0x0 CALLDATALOAD PUSH1 0xE0 SHR DUP1 PUSH4 0x266001D3 EQ PUSH2 0x30 JUMPI JUMPDEST PUSH1 0x0 DUP1 REVERT JUMPDEST PUSH2 0x4A PUSH1 0x4 DUP1 CALLDATASIZE SUB DUP2 ADD SWAP1 PUSH2 0x45 SWAP2 SWAP1 PUSH2 0x1E6 JUMP JUMPDEST PUSH2 0x60 JUMP JUMPDEST PUSH1 0x40 MLOAD PUSH2 0x57 SWAP2 SWAP1 PUSH2 0x2DD JUMP JUMPDEST PUSH1 0x40 MLOAD DUP1 SWAP2 SUB SWAP1 RETURN JUMPDEST PUSH1 0x60 DUP3 DUP3 PUSH1 0x40 MLOAD PUSH1 0x20 ADD PUSH2 0x75 SWAP3 SWAP2 SWAP1 PUSH2 0x33B JUMP JUMPDEST PUSH1 0x40 MLOAD PUSH1 0x20 DUP2 DUP4 SUB SUB DUP2 MSTORE SWAP1 PUSH1 0x40 MSTORE SWAP1 POP SWAP3 SWAP2 POP POP JUMP JUMPDEST PUSH1 0x0 PUSH1 0x40 MLOAD SWAP1 POP SWAP1 JUMP JUMPDEST PUSH1 0x0 DUP1 REVERT JUMPDEST PUSH1 0x0 DUP1 REVERT JUMPDEST PUSH1 0x0 DUP1 REVERT JUMPDEST PUSH1 0x0 DUP1 REVERT JUMPDEST PUSH1 0x0 PUSH1 0x1F NOT PUSH1 0x1F DUP4 ADD AND SWAP1 POP SWAP2 SWAP1 POP JUMP JUMPDEST PUSH32 0x4E487B7100000000000000000000000000000000000000000000000000000000 PUSH1 0x0 MSTORE PUSH1 0x41 PUSH1 0x4 MSTORE PUSH1 0x24 PUSH1 0x0 REVERT JUMPDEST PUSH2 0xF3 DUP3 PUSH2 0xAA JUMP JUMPDEST DUP2 ADD DUP2 DUP2 LT PUSH8 0xFFFFFFFFFFFFFFFF DUP3 GT OR ISZERO PUSH2 0x112 JUMPI PUSH2 0x111 PUSH2 0xBB JUMP JUMPDEST JUMPDEST DUP1 PUSH1 0x40 MSTORE POP POP POP JUMP JUMPDEST PUSH1 0x0 PUSH2 0x125 PUSH2 0x8C JUMP JUMPDEST SWAP1 POP PUSH2 0x131 DUP3 DUP3 PUSH2 0xEA JUMP JUMPDEST SWAP2 SWAP1 POP JUMP JUMPDEST PUSH1 0x0 PUSH8 0xFFFFFFFFFFFFFFFF DUP3 GT ISZERO PUSH2 0x151 JUMPI PUSH2 0x150 PUSH2 0xBB JUMP JUMPDEST JUMPDEST PUSH2 0x15A DUP3 PUSH2 0xAA JUMP JUMPDEST SWAP1 POP PUSH1 0x20 DUP2 ADD SWAP1 POP SWAP2 SWAP1 POP JUMP JUMPDEST DUP3 DUP2 DUP4 CALLDATACOPY PUSH1 0x0 DUP4 DUP4 ADD MSTORE POP POP POP JUMP JUMPDEST PUSH1 0x0 PUSH2 0x189 PUSH2 0x184 DUP5 PUSH2 0x136 JUMP JUMPDEST PUSH2 0x11B JUMP JUMPDEST SWAP1 POP DUP3 DUP2 MSTORE PUSH1 0x20 DUP2 ADD DUP5 DUP5 DUP5 ADD GT ISZERO PUSH2 0x1A5 JUMPI PUSH2 0x1A4 PUSH2 0xA5 JUMP JUMPDEST JUMPDEST PUSH2 0x1B0 DUP5 DUP3 DUP6 PUSH2 0x167 JUMP JUMPDEST POP SWAP4 SWAP3 POP POP POP JUMP JUMPDEST PUSH1 0x0 DUP3 PUSH1 0x1F DUP4 ADD SLT PUSH2 0x1CD JUMPI PUSH2 0x1CC PUSH2 0xA0 JUMP JUMPDEST JUMPDEST DUP2 CALLDATALOAD PUSH2 0x1DD DUP5 DUP3 PUSH1 0x20 DUP7 ADD PUSH2 0x176 JUMP JUMPDEST SWAP2 POP POP SWAP3 SWAP2 POP POP JUMP JUMPDEST PUSH1 0x0 DUP1 PUSH1 0x40 DUP4 DUP6 SUB SLT ISZERO PUSH2 0x1FD JUMPI PUSH2 0x1FC PUSH2 0x96 JUMP JUMPDEST JUMPDEST PUSH1 0x0 DUP4 ADD CALLDATALOAD PUSH8 0xFFFFFFFFFFFFFFFF DUP2 GT ISZERO PUSH2 0x21B JUMPI PUSH2 0x21A PUSH2 0x9B JUMP JUMPDEST JUMPDEST PUSH2 0x227 DUP6 DUP3 DUP7 ADD PUSH2 0x1B8 JUMP JUMPDEST SWAP3 POP POP PUSH1 0x20 DUP4 ADD CALLDATALOAD PUSH8 0xFFFFFFFFFFFFFFFF DUP2 GT ISZERO PUSH2 0x248 JUMPI PUSH2 0x247 PUSH2 0x9B JUMP JUMPDEST JUMPDEST PUSH2 0x254 DUP6 DUP3 DUP7 ADD PUSH2 0x1B8 JUMP JUMPDEST SWAP2 POP POP SWAP3 POP SWAP3 SWAP1 POP JUMP JUMPDEST PUSH1 0x0 DUP2 MLOAD SWAP1 POP SWAP2 SWAP1 POP JUMP JUMPDEST PUSH1 0x0 DUP3 DUP3 MSTORE PUSH1 0x20 DUP3 ADD SWAP1 POP SWAP3 SWAP2 POP POP JUMP JUMPDEST PUSH1 0x0 JUMPDEST DUP4 DUP2 LT ISZERO PUSH2 0x298 JUMPI DUP1 DUP3 ADD MLOAD DUP2 DUP5 ADD MSTORE PUSH1 0x20 DUP2 ADD SWAP1 POP PUSH2 0x27D JUMP JUMPDEST PUSH1 0x0 DUP5 DUP5 ADD MSTORE POP POP POP POP JUMP JUMPDEST PUSH1 0x0 PUSH2 0x2AF DUP3 PUSH2 0x25E JUMP JUMPDEST PUSH2 0x2B9 DUP2 DUP6 PUSH2 0x269 JUMP JUMPDEST SWAP4 POP PUSH2 0x2C9 DUP2 DUP6 PUSH1 0x20 DUP7 ADD PUSH2 0x27A JUMP JUMPDEST PUSH2 0x2D2 DUP2 PUSH2 0xAA JUMP JUMPDEST DUP5 ADD SWAP2 POP POP SWAP3 SWAP2 POP POP JUMP JUMPDEST PUSH1 0x0 PUSH1 0x20 DUP3 ADD SWAP1 POP DUP2 DUP2 SUB PUSH1 0x0 DUP4 ADD MSTORE PUSH2 0x2F7 DUP2 DUP5 PUSH2 0x2A4 JUMP JUMPDEST SWAP1 POP SWAP3 SWAP2 POP POP JUMP JUMPDEST PUSH1 0x0 DUP2 SWAP1 POP SWAP3 SWAP2 POP POP JUMP JUMPDEST PUSH1 0x0 PUSH2 0x315 DUP3 PUSH2 0x25E JUMP JUMPDEST PUSH2 0x31F DUP2 DUP6 PUSH2 0x2FF JUMP JUMPDEST SWAP4 POP PUSH2 0x32F DUP2 DUP6 PUSH1 0x20 DUP7 ADD PUSH2 0x27A JUMP JUMPDEST DUP1 DUP5 ADD SWAP2 POP POP SWAP3 SWAP2 POP POP JUMP JUMPDEST PUSH1 0x0 PUSH2 0x347 DUP3 DUP6 PUSH2 0x30A JUMP JUMPDEST SWAP2 POP PUSH2 0x353 DUP3 DUP5 PUSH2 0x30A JUMP JUMPDEST SWAP2 POP DUP2 SWAP1 POP SWAP4 SWAP3 POP POP POP JUMP INVALID LOG2 PUSH5 0x6970667358 0x22 SLT KECCAK256 0xA8 0xB7 PUSH28 0x18B65EFD9335E0E5FC85349AE5D8BEBEFEE10C6F8332ED04B282FD45 ISZERO PUSH5 0x736F6C6343 STOP ADDMOD SHR STOP CALLER "
        },
        "methodIdentifiers": {
          "concatenate(string,string)": "266001d3"
        }
      }
    }
  }
}