{
  "_format": "hh-sol-artifact-1",
  "contractName": "LearnContract",
  "sourceName": "contracts/LearnContract.sol",
  "abi": [
    {
      "inputs": [
        {
          "internalType": "string",
          "name": "str1",
          "type": "string"
        },
        {
          "internalType": "string",
          "name": "str2",
          "type": "string"
        }
      ],
      "name": "concatenate",
      "outputs": [
        {
          "internalType": "string",
          "name": "",
          "type": "string"
        }
      ],
      "stateMutability": "pure",
      "type": "function"
    }
  ],
  "bytecode": "0x6080604052348015600f57600080fd5b506103958061001f6000396000f3fe608060405234801561001057600080fd5b506004361061002b5760003560e01c8063266001d314610030575b600080fd5b61004a600480360381019061004591906101e6565b610060565b60405161005791906102dd565b60405180910390f35b6060828260405160200161007592919061033b565b604051602081830303815290604052905092915050565b6000604051905090565b600080fd5b600080fd5b600080fd5b600080fd5b6000601f19601f8301169050919050565b7f4e487b7100000000000000000000000000000000000000000000000000000000600052604160045260246000fd5b6100f3826100aa565b810181811067ffffffffffffffff82111715610112576101116100bb565b5b80604052505050565b600061012561008c565b905061013182826100ea565b919050565b600067ffffffffffffffff821115610151576101506100bb565b5b61015a826100aa565b9050602081019050919050565b82818337600083830152505050565b600061018961018484610136565b61011b565b9050828152602081018484840111156101a5576101a46100a5565b5b6101b0848285610167565b509392505050565b600082601f8301126101cd576101cc6100a0565b5b81356101dd848260208601610176565b91505092915050565b600080604083850312156101fd576101fc610096565b5b600083013567ffffffffffffffff81111561021b5761021a61009b565b5b610227858286016101b8565b925050602083013567ffffffffffffffff8111156102485761024761009b565b5b610254858286016101b8565b9150509250929050565b600081519050919050565b600082825260208201905092915050565b60005b8381101561029857808201518184015260208101905061027d565b60008484015250505050565b60006102af8261025e565b6102b98185610269565b93506102c981856020860161027a565b6102d2816100aa565b840191505092915050565b600060208201905081810360008301526102f781846102a4565b905092915050565b600081905092915050565b60006103158261025e565b61031f81856102ff565b935061032f81856020860161027a565b80840191505092915050565b6000610347828561030a565b9150610353828461030a565b9150819050939250505056fea2646970667358221220a8b77b18b65efd9335e0e5fc85349ae5d8bebefee10c6f8332ed04b282fd451564736f6c634300081c0033",
  "linkReferences": {},
  "deployedLinkReferences": {}
}