{
  "_format": "hh-sol-artifact-1",
  "contractName": "SepoliaContract",
  "sourceName": "contracts/SepoliaContract.sol",
  "abi": [
    {
      "inputs": [
        {
          "internalType": "address",
          "name": "_addr",
          "type": "address"
        }
      ],
      "name": "getBalance",
      "outputs": [
        {
          "internalType": "uint256",
          "name": "",
          "type": "uint256"
        }
      ],
      "stateMutability": "view",
      "type": "function"
    }
  ],
  "bytecode": "0x6080604052348015600f57600080fd5b5061017b8061001f6000396000f3fe608060405234801561001057600080fd5b506004361061002b5760003560e01c8063f8b2cb4f14610030575b600080fd5b61004a600480360381019061004591906100e4565b610060565b604051610057919061012a565b60405180910390f35b60008173ffffffffffffffffffffffffffffffffffffffff16319050919050565b600080fd5b600073ffffffffffffffffffffffffffffffffffffffff82169050919050565b60006100b182610086565b9050919050565b6100c1816100a6565b81146100cc57600080fd5b50565b6000813590506100de816100b8565b92915050565b6000602082840312156100fa576100f9610081565b5b6000610108848285016100cf565b91505092915050565b6000819050919050565b61012481610111565b82525050565b600060208201905061013f600083018461011b565b9291505056fea2646970667358221220d32ff8ebce5013e69509f4f676fa00526a13266d79d670058edf4ba732a39f5e64736f6c634300081c0033",
  "linkReferences": {},
  "deployedLinkReferences": {}
}